:10000000B0240020595700005557000055570000F4
:1000100000000000000000000000000000000000E0
:100020000000000000000000000000005557000024
:100030000000000000000000555700005557000068
:100040005557000055570000555700005557000000
:10005000493900005557000055570000555700001A
:1000600055570000B53E0000C53E0000D53E0000DB
:10007000E53E0000F53E0000053F0000255700006A
:1000800035570000455700005557000055570000F0
:100090005557000000000000000000001D3800005F
:1000A00055570000555700005557000055570000A0
:1000B0000000000010B5064C2378002B07D1054B3B
:1000C000002B02D0044800E000BF0123237010BDC4
:1000D000800000200000000080B00000084B10B538
:1000E000002B03D00749084800E000BF0748036819
:1000F000002B00D110BD064B002BFBD09847F9E731
:10010000000000008400002080B0000080B00000EB
:100110000000000070B50020084B98470500084C0F
:10012000FA218900A047074B186007492800A0471B
:10013000064B18600522064B1A6070BD854E000004
:10014000456F00000000002040420F000400002026
:1001500010E000E030B5084B1C68084A00258021FB
:100160004902013807D3002CFBD054609560136816
:100170000B42FCD0F5E730BD0000002010E000E0AD
:1001800010B5034B1B68002B00D0984710BDC0462C
:100190009C00002070B5441E002804D0024D0120B0
:1001A000A847013CFBD270BD55010000F8B5084CD2
:1001B00080277F0567618026360566616420054DCE
:1001C000A847A7616420A847A6616420A847F8BD96
:1001D000004400419501000070B582B00023164A2A
:1001E000136001AC01256570A370257021001B20F0
:1001F000124EB04721001C20B04721002820B047F4
:100200000F4B802252055A61802212055A610D4B14
:100210001B681D4203D00B4B1B689B0701D40A4B84
:1002200098470A4B98470122094B1A70BFF35F8F1A
:1002300062B6002002B070BD9C000020AD3A000004
:100240000044004110E000E015010000AD01000095
:100250000A00002010B584B00E4B186001AC2000DD
:100260000D4B9847292301930023636001332372C8
:100270000133E37221000920084B9847002209212D
:100280000748084B984700210920074B984704B0BE
:1002900010BDC0469C000020213A0000353A000005
:1002A00081010000DD3800000939000010B5002888
:1002B00004D100210920044B984710BD00210920DA
:1002C000024B9847F9E7C046293900000939000078
:1002D00030B591B0304C0E23237000236370A370AF
:1002E00001A901224A708B700A700E202B4B98478F
:1002F0002278D1090023002904D15309DB012849C0
:100300008C4663441F2111400122100088409861EF
:1003100002AC2270002303930493C021890305914A
:1003200023746374A274E27423752332A354183ABD
:10033000002108A81B4B98471B4BA3621B4BE36291
:1003400001235B4223631A4B63631A4BA3612200B0
:1003500019491A481A4B984700281AD1174D2C688A
:100360002000184B98471F2318401E3B8340164A15
:1003700013602A68D369002BFCD12368022213433F
:100380002360124B98470120114B9847002011B071
:1003900030BD06204042FAE78C020020AD3A000052
:1003A000004400414388000002000C0002000D00E0
:1003B00002000F00001BB700001000429002002056
:1003C000153F0000853E000000E100E0AD010000A7
:1003D00095010000F0B5DE4657464E464546E0B56D
:1003E00083B0032800D075E00E684D680C890022A8
:1003F0006B46DA71002D27D0002C65D0002E00D17D
:1004000077E00023984600239B4601223B493C4865
:100410003C4B98473A4B9A46012704229946594645
:100420004B4259418B46307853461B68197E3942FE
:10043000FCD0197E3942FCD09862197E1142FCD062
:10044000494689798C4611E0002E3AD0002C3ED0E6
:100450000023984601339B466B46DD1DD5E7604679
:1004600001280DD0986AC0B200290DD0197E114222
:10047000FCD0588B00211042F1D05A831E31EEE798
:10048000986AC005C00DEFE72870013CA4B25D4436
:10049000434659424B41F618002CC4D1184B1968F9
:1004A00002220B7E1342FCD0002214491448154B43
:1004B0009847002003B03CBC90469946A246AB4604
:1004C000F0BD0F204042F5E70F204042F2E70F2039
:1004D0004042EFE70E22FF320B490C480C4B984785
:1004E0000C480D4B98470D200C4B9847012040427B
:1004F000E0E7012398466B46DE1D84E78C0200206E
:1005000090020020ED400000409D0000509D000042
:10051000A5890000649D0000C18A0000D9890000FF
:1005200030B583B001AB00221A709A705A70134D27
:100530002C682000124B98471F2318401E3B834015
:10054000802210498B502A68D369002BFCD18F334D
:1005500023752376236802229343236001A90C208C
:10056000094CA04701A90F20A04701A90D20A047D1
:1005700001A90E20A047002003B030BD900200204A
:10058000853E000000E100E0AD3A0000002A06D000
:1005900082180B780370013001319042F9D1704715
:1005A000002A04D08218017001309042FBD17047BC
:1005B00003000278002A07D00020013080B2013306
:1005C0001A78002AF9D170470020FCE7024AD37854
:1005D0000133DBB2D3707047CC02002070470000BB
:1005E00000B583B000220A4B9A700120094B98474E
:1005F00001A90948094B9847002801D003B000BD64
:100600000221019B194301910348054B9847F5E7E7
:10061000CC020020AD02000070100000E9190000BB
:10062000F519000010B50C4B9B780020002B0DD164
:10063000094B5B78002B03D1074B1B78002B06D1AD
:10064000054A53780133DBB25370002010BD034BD1
:1006500098470028F4D0F9E7CC020020D11600001A
:10066000054B5B78002B04D0034A5378013BDBB287
:10067000537000207047C046CC02002010B50B4BD1
:100680005B78002B04D0094A5378013BDBB25370EE
:10069000064B5B780020002B03D1044B1B78002B0A
:1006A00000D110BD024B9847FBE7C046CC020020AA
:1006B00069160000F0B5DE46574680B589B083461E
:1006C0008A460192009310AB80CB1E8812AB1D8826
:1006D0007F220A4007AB5A70187008225A80002FF8
:1006E0003DD05A889219AA1892B25A80694B9847FD
:1006F000041E00D0C1E00023059302AAD380049316
:10070000049B5A461A430492049A53461B0213430D
:10071000049307AB5B88049A1B0413430493049966
:100720005D485E4B9847041E57D100230493049BF9
:1007300002221343049304995948584B9847041EC6
:100740004BD10022059202ABDA8006331B889BB2A4
:10075000544A934249D8544C544B9A4617E007AB3D
:100760005A8800998C46624492B25A80BEE70120B2
:10077000D047049B9B0728D502ABDA88013292B29E
:10078000DA8006331B889BB2464A93422DD804A9CF
:100790004348A047002828D102AB06331B889BB2F0
:1007A000F422FF329342E4D902AB06331B889BB29A
:1007B00001329342DBD83E483E4B98473E483F4B80
:1007C00098470D203E4B9847D1E705A93D48364B49
:1007D0009847041E09D0002305933B4B98472000FF
:1007E00009B00CBC92469B46F0BD059B002B3FD048
:1007F000059B069307A94B889BB24B80069808225D
:10080000324B9847041EE8D1069B08330693019BA0
:10081000002B0BD00698009A19002C4B9847041E09
:10082000DBD1069B009A944663440693002F0ED0BA
:10083000069B009AAD1AED1806950698320039000D
:10084000224B9847041EC8D1069BF3180693059BBC
:100850009B000493049B02221343049304991C48B5
:100860000E4B9847041EB8D11A4B98470400B6E7C0
:10087000184B984703246442B1E7CB225200164933
:1008800016480C4B984716480C4B98470D200C4BBC
:100890009847A4E7250600008C100000F519000019
:1008A00078100000E7030000E9190000950100003E
:1008B00080A00000A58900008CA00000C18A000073
:1008C000D98900000004150061060000691A0000C3
:1008D0006C1000007D060000989D0000509D0000F7
:1008E0009CA00000F0B5CE46474680B587B0CF4B00
:1008F0009846994680E0CD4B059A5A609D6004AFBA
:10090000042239000598CA4B984704007B889BB2A3
:100910007B80002833D104AB5B889BB29D4204D01E
:1009200004AB5B88EB1A042B39DC04AB1B78012B7E
:100930004ED004AB1B78022B78D004AB1B78042B71
:1009400000D190E004AB1B78062B00D1A8E004ABEB
:100950001B78072B00D1BFE004AB1B78052B00D11F
:10096000D6E0B44AB449B548B54B9847B548B64BFC
:1009700098470D20B54B98470624644216E1D222D1
:10098000FF32AD49AD48AE4B9847B148AE4B9847A2
:100990000D20AE4B98470120AE4B984706E1ED2263
:1009A0005200A549A548A64CA04704A94A8892B27E
:1009B0000B78DBB2497800912900A748A0470D20A9
:1009C000A24B98470120A34B984706246442EDE0D0
:1009D000964BDB68002B1CD0944BDB6804AA507844
:1009E000C0B25188059A0832083989B298478F4BAE
:1009F0009B78002B00D09CE04346DB78002B00D195
:100A000058E14B46DB78013BDBB24A46D370934E4C
:100A1000D7E0F322520088498848894B984790488C
:100A2000894B98470D20894B9847E0E77F4B1B691E
:100A3000002B0BD07D4B1B6904AA5078C0B25188A3
:100A4000059A0832083989B29847D0E7F722520050
:100A500079497A487A4B984782487B4B98470D20D2
:100A60007A4B9847C3E7714B5B69002B0BD06F4BF8
:100A70005B6904AA5078C0B25188059A08320839D7
:100A800089B29847B3E7FB2252006B496B486C4B25
:100A9000984775486C4B98470D206C4B9847A6E7D4
:100AA000624B1B6A002B0BD0604B1B6A04AA507868
:100AB000C0B25188059A0832083989B2984796E73A
:100AC0006A4A5D495D485E4B984769485E4B984766
:100AD0000D205E4B98478AE7544B9B69002B0BD047
:100AE000524B9B6904AA5078C0B25188059A0832CB
:100AF000083989B298477AE75E4A4F494F48504BC8
:100B000098475D48504B98470D20504B98476EE7EB
:100B1000464B5B6A002B00D169E7444B5B6A04AA31
:100B20005078C0B25188059A0832083989B298477E
:100B30005DE7524A40494148414CA04704AB19780F
:100B4000C9B25A78D2B24E48A0470D203F4B9847C1
:100B50004C4B9847041E29D14EE787229200364914
:100B60003648374B98474848374B98470D20374B06
:100B700098470224644219E0892292002E492F48A6
:100B80002F4CA04703994148A0470D202F4B984771
:100B90000C2464420AE03E4A27492848284B9847DB
:100BA0003C48294B98470D20284B98473A4A3B49E7
:100BB0002248234FB84721003948B8470D20234B1E
:100BC000984703A93748B047041EE4D1039BDB07CD
:100BD000D2D500201F4B98470123039999430391D5
:100BE0003048314B9847041EE0D101220F4B9A70D8
:100BF000039B9D042D0DB0D00023059305A92B4820
:100C0000164B9847041E00D175E6C822FF320A49E8
:100C10000A480B4B984726480B4B98470D200B4B27
:100C2000984701200B4B9847C0E7C046CC020020F4
:100C3000011A00000F020000A49D0000509D00005A
:100C4000A5890000009F0000C18A0000D98900002A
:100C5000FC9D0000AD020000149E0000E919000098
:100C6000549E0000749E0000989E0000FF0100004A
:100C7000B89E000006020000DC9E00001502000085
:100C8000189F0000E1050000449F0000589F0000ED
:100C90002D020000749F00004A020000AC9D00007D
:100CA000989F000070100000F519000084100000EB
:100CB000D89D0000002007B00CBC90469946F0BDBE
:100CC00070B514001D00002803D0002901D0002AAF
:100CD00012D1002D02D0274B984770BD264A2749D4
:100CE0002748284B98472848284B98470D20284BE1
:100CF00098470C204042F0E7264B9B689A421AD84E
:100D0000244B5B68984226D38618224A536892681F
:100D10009B189E421FD822001F4B98470028DCD109
:100D20001C4A536892689B189E4201D0002DD4D073
:100D3000104B9847D1E7194A10491148114DA8475F
:100D4000144B9A6821001648A8470D20104B98476D
:100D50000C204042C1E7134A08490948094B98470B
:100D600011480A4B98470D20094B98470C204042E8
:100D7000B3E7C046E10500006B020000BC9D000027
:100D8000509D0000A5890000C89F0000C18A000096
:100D9000D9890000CC020020011A00007302000073
:100DA000E89F00007902000030A0000070B5040048
:100DB00007281FD88300164AD3589F46154B196140
:100DC000002070BD134BD9600020FAE7114B596128
:100DD0000020F6E70F4BD9610020F2E70D4B1962B6
:100DE0000020EEE70B4B99610020EAE7094B5962BE
:100DF0000020E6E7084A094909480A4DA8472100AA
:100E00000948A8470D20094B98470C204042D8E7D5
:100E1000789D0000CC020020B1020000C89D0000B7
:100E2000509D0000A589000074A00000D989000031
:100E300010B5282200210648064B98470648074B64
:100E4000984707490320074B9847002010BDC0462C
:100E5000CC020020A1050000CD05000055020000D5
:100E6000DD050000AD0D000030B59FB00400150099
:100E70002C282FD01B283DD006284BD00E2827D059
:100E8000322857D02F2865D0342800D177E0112898
:100E900000D196E0132800D1ACE0042800D1BBE0DB
:100EA000652800D1CAE0092800D1D9E02A2800D15C
:100EB000E8E0202800D1F7E09222520089498A48D0
:100EC0008A4DA84721008A48A8470D20894B98479A
:100ED0001FB030BD0023042203A92800864CA04780
:100EE0000028F5D1854B1B68002BF1D003A92C30CD
:100EF0009847EDE70023082203A928007E4CA0476D
:100F00000028E5D17D4B1B68002BE1D003A91B30E5
:100F10009847DDE70123302203A92800764CA0473B
:100F20000028D5D1754B1B68002BD1D003A9063002
:100F30009847CDE70023142203A928006E4CA04750
:100F40000028C5D16D4B1B68002BC1D003A93230DE
:100F50009847BDE76422002103A8694B9847002306
:100F6000642203A92800644CA0470028B0D1634B39
:100F70001B68002BACD003A92F309847A8E70023AB
:100F8000042203A928005C4CA0470028A0D15D489A
:100F9000564DA847039C230AFF200340220C024021
:100FA000210E204000905848A8470D20514B9847EB
:100FB000524B1B68002B00D18AE700213420984750
:100FC00086E70022514B1A700023043203A928003F
:100FD000494CA047002800D07AE703AB1A784C4B65
:100FE0001A70464B1B68002B00D171E703A9113022
:100FF00098476DE700232C2203A928003E4CA04708
:10100000002800D064E73D4B1B68002B00D15FE750
:1010100003A9133098475BE7002304221CA928008A
:10102000354CA047002800D052E7344B1B68002BFA
:1010300000D14DE71CA90430984749E7002304225A
:101040001CA928002C4CA047002800D040E72B4BBF
:101050001B68002B00D13BE71CA96530984737E798
:101060000123642203A92800234CA047002800D0B4
:101070002EE7224B1B68002B00D129E703A909307A
:10108000984725E70123042203A928001A4CA0470A
:10109000002800D01CE7194B1B68002B00D117E774
:1010A00003A92A30984713E70023082203A9280040
:1010B000114CA047002800D00AE703AB9A8828000B
:1010C0000830012303990C4CA047002800D0FFE60C
:1010D0000A4B1B68002B00D1FAE603A92030984781
:1010E000F6E6C046B8A00000509D0000A5890000AB
:1010F00008A10000D9890000C10C0000A000002058
:10110000A105000080A00000E8A00000A5000020CC
:10111000A4000020F0B58FB001220F236B441A7099
:10112000002861D00268324B1A600022314B1A70DD
:101130000F206844304B9847041E02D020000FB0A7
:10114000F0BD00202D4B9847041E49D12C490120A9
:101150002C4B984704AE30002B4B984704002B488B
:101160002B4DA847B37972793179308C009029489A
:10117000A8470D20284FB8472448A84726226A448C
:101180001A2169442548A8470D20B8471F48A84799
:10119000737A327AF1792248A8470D20B8471B4864
:1011A000A8470223052213211E48A8470D20B8474F
:1011B0001648A8471C4A1D491D48A8470D20B84796
:1011C00023000D33BAD1E822FF321A491A48104BD6
:1011D00098471A481A4B98470D200F4B9847ADE790
:1011E0000020184B9847A9E70C246442A6E7C046A4
:1011F000A0000020A5000020B51B0000310E00005B
:10120000690E0000AD0D0000D11A000080A00000A2
:10121000A5890000C4A10000D9890000ECA100004C
:1012200008A200002CA2000044A2000050A200006E
:101230005CA20000C4A00000509D000074A2000049
:10124000C18A0000891C000010B5014B984710BDF1
:10125000E5080000F0B5CE46474680B5A3B005903E
:101260000C0015001F002AAB1B8899462BAB1B787E
:101270009846012A03D0002F40D0022A4CD0631E8A
:101280001F2B00D978E04B46013B9BB20D2B03D9B5
:101290004B46FF2B00D07DE007AE220005995A2077
:1012A00002AB9C466044784B98473419463400237F
:1012B000237044334A46F25243465A1E93416722F2
:1012C000B3544123F554032D00D172E0022D00D117
:1012D000ABE0042D00D1C3E0012D00D0C6E0002317
:1012E0000293019300936C3307AA28210120674CD5
:1012F000A04723B00CBC90469946F0BD644A6549AE
:101300006548664B98476648664B98470D20664B84
:1013100098470C204042ECE73800644B984740283F
:10132000ADD13B781A00303A362A17D80A3A062A45
:1013300014D9473B192B11D97A1C38004030137847
:1013400019003039362909D80A39062906D9473B08
:10135000192B03D901328242F1D190E7544A4D4909
:101360004D484E4B984753484E4B98470D204E4B97
:1013700098470C204042BCE74F4A46494648474BF5
:1013800098474E48474B98470D20474B98470C20AD
:101390004042AEE78D2292003E493F483F4B98477E
:1013A0004748404B98470D203F4B98470C20404200
:1013B0009FE73B78013BDBB207AA1370032B17D8DA
:1013C0007A78511E07AB59701023110099430B29ED
:1013D0001DD03C4A2F493048304CA04707AB5978C4
:1013E0003948A0470D20304B98470C20404280E7F9
:1013F000364A28492848294CA04707AB1978344871
:10140000A0470D20284B98470C20404271E7B91C9B
:10141000162002AB9C4660441B4B98477B7807AA7A
:101420009446634400229A7059E738001F4B98474E
:10143000431E9BB23F2B05D8421C390007A8124B14
:1014400098474CE7234A13491348144B98472248BE
:10145000144B98470D20144B98470C20404248E706
:101460003E22390007A8084B984738E71B4A09492C
:1014700009480A4B98471A480A4B98470D200A4BCF
:1014800098470C20404234E78D050000B506000067
:1014900015020000D4A00000509D0000A5890000A6
:1014A0001CA10000C18A0000D9890000B10500001C
:1014B0002102000030A100002B0200003CA100002E
:1014C00050A100005202000078A100004B02000071
:1014D0005CA100006102000094A100007102000004
:1014E000B0A1000030B583B006AC2488002501957A
:1014F0000094024CA04703B030BDC0465512000016
:1015000000207047F0B583B080256D000543A52409
:101510006401084F084E29002000B84700230193BA
:1015200001A92000B0470028F5D1019B9D42F2D1CE
:1015300003B0F0BDF5190000E919000000B583B053
:101540000023019301A91148114B9847002801D0AD
:1015500003B000BD80214900019B194301910B4854
:101560000C4B98470028F3D101A9D0204001084B2B
:1015700098470028ECD180214902019B1943019131
:10158000D0204001034B9847E2E7C0460814000012
:10159000E9190000F519000010B582B0284B1C684D
:1015A000002C04D0264B1C68200002B010BD19008E
:1015B00080204001234B9847002803D00022204B75
:1015C0001A60F1E701A920481E4B9847002803D074
:1015D00000221B4B1A60E7E7194B1B681B4A93421A
:1015E0000ED01B4A934212D01A4A93421CD014497F
:1015F000194A0B681A40A023DB0213430B60D1E7A2
:10160000019B012BF3D0154A0D4B1A60EFE7019BAC
:10161000032BECD0042B03D0114A094B1A60E6E7E8
:10162000104A074B1A60E2E70549EC208003054B9E
:1016300098470028DBD00022014B1A60B4E7C0466F
:10164000A8000020E9190000F4130000A002100017
:10165000B0021000F0001000FFFFF0FFA102100028
:10166000B2021000B102100030B583B0164C012553
:1016700001A91020A04700281CD1019B2B42F7D1C3
:1016800001A90130104B9847002813D101998B070D
:1016900007D502239943019101300C4B984700284C
:1016A00008D101A90B20084B9847002802D10199C5
:1016B000CB0701D403B030BD0123994301910B3016
:1016C000024B9847F6E7C046E9190000F5190000FB
:1016D000F0B583B000230193009301A90B20284BA0
:1016E0009847041E30D10199CB0706D40123194332
:1016F0000B20244B9847041E26D101A90120204B22
:101700009847041E20D101998B0720D505251C4F31
:101710001D4E69460F20B847041E20D1009B5B0771
:101720002BD40220B047013D002DF2D1AF22520050
:1017300016491748174B98471748184B98470D20DC
:10174000174B984704246442200003B0F0BD0223E5
:10175000194301200B4B9847041ED7D0F4E7AA2267
:1017600052000A490A480B4DA847009A21000D482B
:10177000A8470D200A4B9847E6E70B4B9847E3E74D
:10178000E9190000F51900009501000090A2000081
:10179000509D0000A5890000D8A20000C18A000069
:1017A000D9890000C0A20000D1190000F8B50700D7
:1017B0002D4D2E4C2E4E2800A047002802DB012084
:1017C000B047F8E72B48294B9847C30709D4284E60
:1017D000294C264D0120B0472000A847274B9842AE
:1017E000F8D1022F21D0032F29D0042F30D0244943
:1017F0002448254B98470024244B98470005000DAA
:10180000234B98422AD82000224B98472248234C49
:10181000A0471B492248A0470D20224B9847224948
:101820001548194B98470020F8BD20492048164C10
:10183000A047802149031348A0470024DCE71B4947
:101840001B48114CA04700210E48A0470024D3E7B5
:101850000B490C480C4B98478024CDE702202043CD
:101860000C4B9847D2E7C04614100000DD19000069
:1018700095010000BC0702000C000C009ED0AD10CA
:10188000521352138C100000F51900009915000036
:101890009F0300000515000080A00000A58900003E
:1018A000F4A20000D9890000612F52EF7DD51C3CC5
:1018B000AC07020070B582B0154B0193154B009335
:1018C0000238012811D9012464420020124E134D20
:1018D000009B98420ED00220B0470198A847013CD7
:1018E000002CF5D10520404209E00D4B01930D4B32
:1018F0000093E8E7009A074B00209A4201D002B01B
:1019000070BD00210248084B98470020F7E7C04609
:101910008C1000003626530295010000DD190000EE
:10192000AC070200C3C15DD7F519000010B582B045
:101930000023019301A9A0204001144B9847041EE5
:1019400015D11349019B19400191A0204001114B71
:101950009847041E16D0104A10491148114B984759
:101960001148124B98470D20114B98470AE0114A35
:101970000A490B480B4B98470B480C4B98470D20D6
:101980000B4B9847200002B010BDC046E91900007B
:10199000FFFBFFFFF51900000B0200009CA20000F6
:1019A000509D0000A5890000A8A20000C18A000087
:1019B000D98900000502000010B5014B984710BD01
:1019C000D102000010B5014B984710BD2105000061
:1019D00010B5014B984710BD8123000010B5014B95
:1019E000984710BDB923000010B5014B984710BDB2
:1019F000CD23000010B5014B984710BDE523000032
:101A0000F0B5D6464F464646C0B582B080468946B8
:101A10001500134B1F88083FBBB201931E00040042
:101A20009A421AD90F4B9A46371A4346E11A49444B
:101A3000019A2000D047002809D1AD1B3919A419FB
:101A4000B542F2D8AAB249442000064B984702B0EA
:101A50001CBC90469946A246F0BD0021F2E7C04664
:101A60000800002029250000F0B5D6464F4646461E
:101A7000C0B582B0804689461500134B1F88083FC9
:101A8000BBB201931E0004009A421AD90F4B9A462A
:101A9000371A4346E11A4944019A2000D0470028EA
:101AA00009D1AD1B3919A419B542F2D8AAB24944DB
:101AB0002000064B984702B01CBC90469946A246AF
:101AC000F0BD0021F2E7C046080000208526000096
:101AD00070B584B00400002303930822002101A8FC
:101AE0002D4B9847002C44D02822002120002B4B5E
:101AF000984703A92A482B4B984700283AD1039BC3
:101B0000002B39D0C02080021843082201A9264B9F
:101B1000984700282ED1029B1804000C03902ED069
:101B2000C0239B021843282221001F4B98470028FE
:101B300020D121790902A2790F231A400A43617941
:101B40000901FF2529400A43E1790902667A3340F9
:101B50000B43217A09010D402B43002A12D0002BA0
:101B600013D012498B4213D8114B9A4202D80D3828
:101B700000E0002004B070BD0C204042FAE70C20C9
:101B80004042F7E70C204042F4E70C204042F1E7E6
:101B90000D204042EEE7C04643880000A10500004A
:101BA00008000C00E9190000011A0000521300009F
:101BB0005113000070B5002837D005786B1E032B39
:101BC00000D901250020204B9847041E2FD11F4823
:101BD0001F4CA0471F4B984701001F48A0470D20EE
:101BE0001E4B98471E4B984728001E4B9847041ED3
:101BF00017D128001C4B9847041E12D1023D012D1D
:101C000011D91A4B9847041E0DD05622FF3218499D
:101C100018480F4B98471848184B98470D200F4B02
:101C20009847174B9847200070BD0125CAE7282226
:101C3000FF320F490F48064B984712480F4B984701
:101C40000D20064B9847EEE7B919000080A0000070
:101C5000A589000099150000C4A30000D9890000DF
:101C6000FD230000AD170000B51800003D15000071
:101C70000CA30000509D000088A30000C18A000052
:101C8000C5190000A8A3000010B51C4B9847041EFE
:101C90000BD100201A4B9847041E14D1194B9847BA
:101CA000041E1DD1184B98470BE0B622520017496D
:101CB0001748184B98471848184B98470D20184B51
:101CC0009847200010BD7422FF3210491048114B74
:101CD00098471448114B98470D20114B9847F0E74F
:101CE0007A22FF3209490A480A4B98470E480B4BA3
:101CF00098470D200A4B9847E3E7C0462D1900008E
:101D00001D320000C5190000A923000018A300001F
:101D1000509D0000A589000028A30000C18A000092
:101D2000D989000048A300006CA3000000B585B06D
:101D300001AB019000220292198119000320024B8D
:101D4000984705B000BDC046D503000070B584B00B
:101D500008AC257801AC20703F30C4B20E2C00D9FD
:101D600084E0A0004F4C2058874601AB0A0C5A7003
:101D70000A0A9A70D97005214B4B1B78002B77D03B
:101D80000139C9B283E00B0ADBB2002D07D101AAE9
:101D9000537001AB99700022DA700521ECE78022C4
:101DA0005242134301AA5370F3E701AB00225A7069
:101DB0009A70DA700521DFE701AB00225A709A7041
:101DC000DA700521D8E701ABFF225A709A70DA70F9
:101DD0000521D1E701AA080C5070080A9070D17053
:101DE000190A117153710721C6E701AA080C507036
:101DF000080A9070D170190C1171190A5171937100
:101E00000821B9E70B0ADBB2002D0CD101A8437001
:101E100001AB9970110ED970110C1971110A597119
:101E20009A710821A8E780204042034301A843702B
:101E3000EEE701AB080C5870080A9870D970110EC3
:101E40001971110C5971110A9971DA71092193E70D
:101E50002822FF3215491648164B98471648174B4B
:101E600098470D20164B9847002317E0002315E0F4
:101E70004E1E01AA95197F23124C5B001078434037
:101E8000E35C0132AA42F8D15B0001AA935589B202
:101E900001A80D4B984701230028D9D1180004B0A0
:101EA00070BDC046D4A30000AC00002014A4000004
:101EB000509D0000A5890000A4A80000C18A000070
:101EC000D9890000A0A400002D1D000000B585B038
:101ED00001AB002201920290198119000320024BEC
:101EE000984705B000BDC046D5030000F0B5C64612
:101EF00000B582B00700CF282BD003003B33DBB204
:101F0000012B26D90B246B46DE1D264B984601215A
:101F10003000C047051E25D13378BB4230D0013C8C
:101F2000E4B2002CF3D10B346B46DE1D1D4F0121B2
:101F30003000B847002825D13378002B2FD0013C42
:101F4000E4B2002CF3D10125280002B004BC904675
:101F5000F0BD01216B46D81D124B98470025002883
:101F6000D0D0F1E7B12252000F491048104B9847EA
:101F70001048114B98470D20104B98470025E3E778
:101F80000B24D1E7B822520007490848084B98476C
:101F90000848094B98470D20084B9847D4E701257E
:101FA000D2E7C046CD1E00002CA40000509D0000CA
:101FB000A5890000D0A80000C18A0000D9890000CE
:101FC000F0B5DE4657464E464546E0B587B001902F
:101FD0008946029200239A4680239B019B466A46CB
:101FE000D3813B4B98462EE03A4A3B493B483C4B19
:101FF00098473C483C4B98470D203C4B9847002560
:10200000280007B03CBC90469946A246AB46F0BDBE
:10201000002C2EDD019B5344180039002C4B9847AF
:10202000041E33D1029B002B03D1314B1B78002BB4
:1020300039D05346FB181BB29A464B46DF1BBBB246
:102040009946002B42D04F46D94501D96B46DF89CE
:10205000BFB20A2404ABDE1C01213000C047051EBC
:10206000C2D133781B090F2BD2D0013C24B2631CA0
:10207000F2D1204A18491948194CA04704ABD97825
:102080001D48A0470D20194B9847B9E7C52292007B
:1020900011491248124B98471848134B98470D2086
:1020A000124B9847ACE7022105A8094B9847002836
:1020B000BFD0134A08490948094B984711480A4BB1
:1020C00098470D20094B9847250099E7012597E788
:1020D000CD1E0000FF02000038A40000509D00004B
:1020E000A589000004A90000C18A0000D989000068
:1020F000AC0000200B03000038A9000068A9000014
:102100001F03000098A90000F0B5D6464F4646468A
:10211000C0B586B00390049130280FD8304B1F789B
:10212000FBB205930023302203998A425B41DBB264
:102130009A460A252B4B9846D14633E02A4B1F7806
:10214000EEE70598294B98470400012841D0E72283
:10215000920027492748284EB04703992748B0479F
:102160000D20274B98470120264EB04700230093AF
:1021700000220021CF201B4FB847CF201B4B984790
:10218000214A1B491B481C4FB847049B039A29004E
:102190001E48B8470D201A4B98470120B047013D13
:1021A000002D16D04B4600930423049A039F390058
:1021B0000598C04704000128C3D0154A0C490D48B2
:1021C0000D4EB04739001348B0470D200C4B9847CF
:1021D000C9E7200006B01CBC90469946A246F0BD57
:1021E00010A400004D1D000011A40000ED1E000011
:1021F00058A40000509D0000A589000090AA00008E
:10220000D989000095010000AF030000C8AA0000B2
:102210009603000064AA0000F0B5DE4657464E461D
:102220004546E0B587B002908B46FF280FD8414B5A
:102230001F78FBB203930023FF2202998A425B417D
:10224000DBB29A460A253C4B9846D14631E03B4BDF
:102250001F78EEE703983A4B9847040001283FD0D7
:10226000384A394939483A4EB04702993948B04757
:102270000D20394B98470120384EB047002300937A
:1022800000220021CF202C4FB847CF202C4B98475D
:10229000334A2D492D482E4FB847029A290031481C
:1022A000B8470D202C4B98470120B047013D002D29
:1022B00037D04B46009304230022029F3900039835
:1022C000C04704000128C5D0274A1F491F48204E97
:1022D000B04739002548B0470D201F4B9847CAE743
:1022E0004A46042105A8224B9847040001280BD038
:1022F000204A15491548164B98471F481F4B9847C9
:102300000D20154B9847B6E705AA53781B02917824
:1023100009040B4311780B43D278120613435A4633
:102320001360200007B03CBC90469946A246AB46DD
:10233000F0BDC04612A400004D1D000013A4000013
:10234000ED1E00001D04000078A40000509D000058
:10235000A5890000F8A90000D989000095010000B6
:102360003C0400004CAA000017040000CCA90000A7
:10237000C11F0000240400002CAA0000C18A000034
:1023800010B582B00023009300220021CF20044C1E
:10239000A047CF20034B9847002002B010BDC04695
:1023A0004D1D0000ED1E00000022024B1A7000209F
:1023B0007047C046AC00002000B583B001A9024BB5
:1023C0009847019803B000BD1922000010B5044BD6
:1023D00098470023012801D1180010BD063BFBE7F8
:1023E0001922000010B5044B98470023012801D1A1
:1023F000180010BD063BFBE70921000010B582B0B4
:1024000000230093354A137069463548354B984789
:10241000002828D0314B1B78002B0DD17C3300993C
:1024200099432C3B194300912D482F4B9847041E8C
:1024300039D00122294B1A7001A980204001294B73
:10244000984700283BD0264C2000284B9847702303
:1024500001009943502001432000254B9847002458
:10246000200002B010BD01221C4B1A70214A2249E3
:102470002248234B98472348234B98470D20234B52
:10248000984769461648174B9847041EC2D1204A00
:1024900019491A481A4B98471E481B4B98470D205C
:1024A0001A4B9847DCE71C4A13491448144B9847C9
:1024B0001A48154B98470D20144B9847D0E7184AF7
:1024C0000D490E480E4B984716480F4B98470D2064
:1024D0000E4B984706246442C2E7C046AC00002079
:1024E00024E800001922000009210000B92300009F
:1024F000E5230000C704000094A40000509D0000E4
:10250000A5890000A0A50000C18A0000D9890000AB
:10251000CA040000F0A50000D40400001CA60000BE
:10252000DE04000050A60000F0B5DE4657464E46D9
:102530004546E0B587B00290039116000A250023B6
:102540009B4600243E4B9846A94637E001239B4614
:10255000013635E0C8203B4B9847012845D03A4A20
:102560003A493B483B4FB84702993B48B8470D2092
:102570003A4B984701203A4FB84700942300220075
:102580002100CF202E4DA847CF202E4B9847354A0B
:102590002E492F482F4B9A4698473300029A4946B6
:1025A0003148D0470D202D4B98470120B8470123D3
:1025B0005B429C46E1444B46002B38D0012EC5D0EF
:1025C000009433002200029D2900C820C047012842
:1025D000C0D0264A1D491E481E4FB847290024482E
:1025E000B8470D201D4B9847C4E75B46002B16D01B
:1025F00005AF2200310038001E4B98473B78039A04
:102600001370012811D01C4A10491148114B9847EA
:102610001A481B4B98470D20104B9847AAE72200F9
:1026200031000398134B9847EBE7002001E00620A8
:10263000404207B03CBC90469946A246AB46F0BD2E
:102640004D1D0000ED1E00006304000088A4000082
:10265000509D0000A5890000A4A60000D9890000B3
:10266000950100008404000004A700005D04000040
:1026700074A60000C11F000073040000DCA6000067
:10268000C18A0000F0B5DE46474680B589B00490A7
:102690008B4603920A268027BF016B46DF823500F6
:1026A0002DE0013303932DE0834A84498448854C0F
:1026B000A04731008448A0470D20844B9847012053
:1026C000834CA0470023009300220021CF20814E9D
:1026D000B047CF20804B9847804A78497848794E58
:1026E000B047039B049A29007D48B0470D20774BE3
:1026F00098470120A047013D002D00D1D5E0039B64
:10270000012BCED000230093039B0022049E3100B6
:10271000C720704CA0470128C6D1C7206E4B9847F0
:1027200001280CD0F422920064496548654CA0470A
:1027300004996C48A0470D20644B9847BFE70022DE
:1027400007AB1A80039C0026A8463500260021E02E
:102750000023B7425B4102330B2004AA9446604435
:10276000102252421343037001215F4B9847002807
:102770001DD15B46581921005B4B9847002830D18A
:102780005A4B1B78002B39D065192DB2361BB6B2C7
:10279000002E53D0341CBE4201D96B46DC8AA4B251
:1027A000002DD5D10323BE42D6D9023BD4E74546FE
:1027B000D42292004E494248424B98474D484E4BD6
:1027C00098470D20414B9847F82292003B493C48DE
:1027D0003C4B98474948484B98470D203B4B9847FE
:1027E0006DE74546464A42493548364B9847454885
:1027F000414B98470D20354B9847E5E7022107A844
:10280000394B98470028BFD045463F4A38492C48A5
:102810002C4B98473D48384B98470D202B4B9847F9
:10282000D2E73C22FF323A492548264B984739489F
:10283000314B98470D20254B984727E045462B4BB9
:102840001C78631E9C410234A1B207A8324B984702
:102850000028E6D108AB1B19053B1B78002B06D1DD
:1028600008AB9C466444063C2378C32B1BD0A122B2
:10287000520027491248134CA04707A98B784A7881
:1028800009782648A0470D20104B9847FA2292005D
:102890000A490B480B4B98471848174B98470D208F
:1028A0000A4B98470BE7002001E00620404209B0A0
:1028B0000CBC90469B46F0BDCA03000068A4000013
:1028C000509D0000A589000020A70000D9890000C4
:1028D000950100004D1D0000ED1E0000F2030000F8
:1028E00004A7000050A700002D1D0000AC00002030
:1028F00048A4000088A70000C18A00007CA800004E
:1029000059030000C0A7000063030000F4A7000003
:102910001CA400002CA80000CD1E00004CA8000044
:10292000F0B5DE4657464E464546E0B585B00190C7
:102930000E0002921D000EAB1C88002C64D0030117
:1029400035495B58002B5FD00101334B5B189B88E6
:102950009BB2002B58D0304B5B189B7A012B53D184
:10296000F4802D4B9B468B445B460A229046D8440C
:102970008A460095039315E0250001231CE00133EE
:10298000002200210020254CA0473DE02448254D91
:10299000A84721002448A8470D20244B984733E03E
:1029A000002C31D05B469B88E31A1BB2002BE3DD81
:1029B000039B9D88ADB20023174A514689582A00CF
:1029C0000098164FB8470028E0D1134B5246D35811
:1029D0003360B580F3885B1BF380154B1B68002BBD
:1029E00005D0134B1B683200029901989847641B6D
:1029F000A4B2009B9C46AC446346009343461B78BC
:102A0000002BCDD1002CBAD105B03CBC90469946E4
:102A1000A246AB46F0BDC046F8020020C10C000043
:102A200080A00000A5890000E4AA0000D989000068
:102A3000A8030020F0B5D6464F464646C0B59AB02A
:102A40000D001400412839D0542837D0422853D0E3
:102A500043286AD0442800D1AFE04B2800D1ACE035
:102A60004A2800D1CFE0462800D1E5E0482800D12F
:102A70000EE14D2800D1DCE0452800D12CE14728AB
:102A800000D14DE107254C2800D126E152282DD157
:102A90000123142209A92000A24CA047002825D117
:102AA000A14B0A9A1A601B68002B1FD09E4B1C6812
:102AB00009AB1A7C0B990998A04717E00023042260
:102AC00009A92000974CA04700280FD109AB5A78DC
:102AD00005AB1A70954B1B68002B07D0934B1B68F6
:102AE00009AA0020105605AA012198471AB01CBC5B
:102AF00090469946A246F0BD0023042209A9200071
:102B0000884CA0470028F1D109AB5A7805AB1A7060
:102B1000864B1B68002BE9D0844B1B6809AA002058
:102B2000105605AA02219847E0E700230C2205A9C8
:102B300020007C4CA0470028D8D105AB09229A562A
:102B4000002A24DB180008215956794B090159182D
:102B5000C97AC9B214011B19D9720121997241892C
:102B6000083989B2198173490B8801339BB20B80F4
:102B70000B889BB2002B03D10B8801339BB20B80D7
:102B80006C4B198889B21001694B1B18D98009ABAD
:102B90001A7002229A8005AA5188D980069A0B924F
:102BA000624B1B68002BA1D0604B1B6805AA082054
:102BB000105609AA0421984798E70023042209A97E
:102BC0002000584CA047002800D08FE709AB002018
:102BD000185605AA10705B785BB25370002B07D1B2
:102BE00009AB5B88083B9BB20101514A5218138123
:102BF0004E4B1B68002B00D178E74C4B1B6805AA95
:102C00000521984772E70023442209A92000454C7A
:102C1000A047002800D069E7474B1B68002B00D174
:102C200064E7454B1B68199A0392110009A898475D
:102C30005CE706239A4601E006239A460023102209
:102C400005A92000374FB847002800D04EE705AA55
:102C50000C201056D38907013549C91900270F7375
:102C60000826975FB8465789B94609AF56887E81CE
:102C7000069A0C92CA8892B293420CD0102D00D8BA
:102C800034E70123002200210020264CA0472DE735
:102C900009239A46D2E74346002B01DDA8450FDB06
:102CA00009AB42469A8000230993204B1B68002BF6
:102CB00000D11BE71D4B1B6809AA5146984715E731
:102CC00023004B44424669468A818A8900925246D3
:102CD00039001A4CA04709E707250023082209A953
:102CE0002000104CA047002800D0FFE609AB0020D0
:102CF00018569A88598805AB198001010C4B5B184E
:102D0000DB889BB29A4200D0F0E6084B1B68002B90
:102D100000D1EBE6054B1B6805AA29009847E5E6BC
:102D20000825DAE7C10C0000AC030020A80300204E
:102D3000F8020020AE000020B0030020212900008E
:102D400010B50A4B1B78002B00D010BDB02200211B
:102D50000748084B984708490220084B984701222A
:102D6000024B1A700022064B1A80EEE7AD000020DD
:102D7000F8020020A1050000352A0000AD0D00007A
:102D8000AE000020024B1860024B19607047C0462D
:102D9000A8030020B0030020F0B5D646474680B512
:102DA00089B00592022800D09CE001290AD00229AE
:102DB00000D170E001256D42280009B00CBC90469E
:102DC0009A46F0BD494C2778FFB22678F6B22078B3
:102DD00001300631464B9847C9B221703201454B4C
:102DE0009B189B7A0625002B18D0404E404B9A46E4
:102DF000404B98463778FFB23478E4B230780130EF
:102E00000721D047C9B23170230143449B7A002B7C
:102E100007D0013DEDB2002DECD1CBE7354BD418F6
:102E200002E02401334BE4187DB2002DC4DB1022F4
:102E300000212000304B98470123A3722F4A1388AA
:102E400001339BB2138013889BB2002B03D11388EC
:102E500001339BB21380294E33889BB2E38028480C
:102E6000284FB847328892B229002748B8470D202A
:102E7000264B9847059BDB079ED507AA1570212393
:102E8000E372002302930193009304335021022044
:102E90001F4CA04790E71F4B1D78EDB21C78240112
:102EA0001D4AA4181978013103220A401A70A37A26
:102EB000002B14D003221749174F03200D78EDB2D1
:102EC0000C782401E4190B78013303400B70A37ACA
:102ED000002B04D0013AD2B2002AEFD16AE70735BD
:102EE0006DB2A2E701256D4266E7C046B000002042
:102EF00025720000F8020020A1050000AE000020AD
:102F000080A00000A589000010AB0000D989000056
:102F1000B5060000B10000206803002070B588B03D
:102F2000041E30DB002931D000011D4B1B189B7A99
:102F3000012B2ED1002A2FD0194B1B18DB7A4426E7
:102F4000DB0705D5164B1B18DA7A05AB5A72073624
:102F500005AD2C7208222800124B98472401104B13
:102F60001C19E3886B8100230293019300930C33B7
:102F70002A00310002200C4CA047002801D0092073
:102F8000404208B070BD06204042FAE706204042A9
:102F9000F7E706204042F4E706204042F1E7C0464A
:102FA000F80200208D050000B506000030B589B09C
:102FB000002836DB002937D0AF23DB009A4236D811
:102FC00004011E4B1B199B7A012B33D104AB1870E3
:102FD0005A802500194C6419E4889C8150250628E4
:102FE00000DD0C3D0401154B1B19DC7A4523E40779
:102FF00005D50001114B18180589ADB24C2380206E
:103000001843029501920091102304AA01000220A6
:103010000B4CA0470023002800D00E3B180009B03D
:1030200030BD06235B42F9E706235B42F6E7062341
:103030005B42F3E706235B42F0E7C046F80200205C
:10304000B506000030B587B0002834DB002935D044
:10305000002A36D005011E4C6419A47A012C33D104
:103060001B4C29516419A280217B002200291DD10B
:1030700001212173E27A4531D20700D50731002BB7
:1030800017D1013B049304AA10710001104B1818CA
:10309000C388D38000230293019300930833022056
:1030A0000C4CA0470022002800D00E3A100007B0B8
:1030B00030BD0493E7E706225242F7E70622524268
:1030C000F4E706225242F1E706225242EEE7C046FA
:1030D000F8020020B506000030B587B004001E4895
:1030E0001E4DA84721001E48A8470D201D4B98479C
:1030F000002C2ADB22011C4B9B189B7A012B27D129
:1031000005A90C70184B9B18DA884A8000229A7225
:10311000DA80DB7A4921DB0700D5053100230293F1
:1031200001930093043305AA0220104DA847051E01
:1031300001D009256D4224010B48201810220021DE
:103140000B4B9847280007B030BD06256D42F9E7C4
:1031500006256D42F6E7C04680A00000A589000064
:10316000F8AA0000D9890000F8020020B506000086
:10317000A105000070B582B0002301930026002154
:103180000278441C05300B0009E09D005B195B00D0
:103190009B18DBB222000134A0420AD012782E2AFA
:1031A0000AD0002A0CD0303AD2B2092AEDD9002038
:1031B00000E0002002B070BD6A46B354200002E077
:1031C0006A46B35420000136042ED9D10422694640
:1031D00001A8024B98470198ECE7C0468D05000016
:1031E00010B584B004000B4B9847C3B2402B0DD8E8
:1031F000FF23034001330022029201920092220039
:103200004A210220044CA04704B010BD06204042D1
:10321000FAE7C046B1050000B506000070B582B0FF
:1032200004002A4B98470005000D294B00259842C1
:1032300002D8280002B070BD01A92648264B984745
:10324000051EF6D1254B019A1340254919430191DA
:103250002048244B9847002C20D000212248214CA4
:10326000A047AB212148A04701212148A0470021C8
:103270002048A04781212048A047204E204C300004
:10328000A0470128FBD1154B019A13408021490228
:10329000194301910F48134B9847CAE70021124880
:1032A000104CA047B9211148A04701211048A04760
:1032B00000211048A04781210F48A0470F4E104C15
:1032C0003000A0470128FBD1DDE7C046991500007A
:1032D0009F03000010140000E9190000FF8F88F818
:1032E00000101101F5190000080201000C02010094
:1032F000140201001C020100040201001802010076
:10330000DD1900000C4B1B68002B06D1EFF3108376
:10331000002B07D00022094B1A70074A13680133AB
:103320001360704772B6BFF35F8F0022044B1A70B0
:103330000132024B1A70F0E7B4000020B800002000
:103340000A000020084B1A68013A1A601B68002B1B
:1033500009D1064B1B78002B05D00122044B1A70B3
:10336000BFF35F8F62B67047B4000020B800002042
:103370000A000020F0B583B001AC0125657000277C
:10338000A770257021001720064EB0478022120436
:10339000054B9A612770657021003720B04703B054
:1033A000F0BDC046AD3A00000044004110B5002217
:1033B0000023027042700021428001710376026294
:1033C000C26182600373C0246401C48103744374C6
:1033D0008374C37403752A24035543758375063CAF
:1033E0000355C2840285C1752B23C1540133C154D6
:1033F00010BD0000F0B5D6464F464646C0B596B063
:10340000070016000160C64A106A80235B0203436E
:1034100013620B780520DB0705D516B01CBC90465F
:103420009946A246F0BD0B7817309B07F5D4737808
:103430003B71002B04D1BB4A136C04210B43136472
:103440000023BB60FB603B61BB76FB763B833B7735
:10345000B54B1F602A23F35C002B05D1337D002B75
:1034600002D101337B7701E000237B773B689846EC
:1034700033786A46137069461E20AC4B98471E206D
:10348000AB4B98472C23F25C002A54D0013BF55CEF
:10349000337BEB18DBB2D118C9B28B4221D252195F
:1034A000D3B29946A34B9A4603E00135EDB24D45A0
:1034B00017D00F242C40337BE41850229E4902A8D9
:1034C000D047132CF1D8A40002ABE05801A9002387
:1034D0004B70CB708B7001330B70C0B2974B984719
:1034E000E3E7F4895022944902A8924B9847132CA1
:1034F00013D9737D9B00DBB242461370B37DDB01B1
:1035000072781343DBB2424653703379342B00D9BF
:103510007BE19B008A4AD3589F46A40002ABE05847
:1035200001A900234B70CB708B7001330B70C0B2BC
:10353000824B9847DDE7347B50227F4902A87D4BC0
:103540009847132C15D9F48950227B4902A8794B4E
:103550009847132CCDD8A40002ABE05801A9002352
:103560004B70CB708B7001330B70C0B2734B9847AC
:10357000BFE7A40002ABE05801A900234B70CB7059
:103580008B7001330B70C0B26C4B9847DBE70423A0
:10359000102402211AE0717C337C102416E00623EB
:1035A0001024012112E00823102400210EE0002342
:1035B000302400210AE000232024002106E000231B
:1035C0000024002102E002231024012109017022BD
:1035D0000A40134342469370F37D17203F2B00D9D6
:1035E0001BE7D3703A68537E5BB2002BFBDBF37CA6
:1035F000728813432422B25CD2001343327D9200BE
:103600001343B27C52001343234342469380337EDC
:10361000002B20D0102C00D1D9E000D898E0202C2D
:1036200000D1B6E0302C16D1F27C002A0AD0F26923
:1036300080321720FF2A00D9EFE6326A8032FF2A53
:1036400000D9EAE61720F269FF2A00DDE5E6326AD2
:10365000FF2A00DDE1E639684A7E52B2002AFBDB30
:10366000424613723A68537E5BB2002BFBDBB38B8E
:10367000424693833A68537E5BB2002BFBDB338C6C
:10368000424613842C23F35C002B05D0013BDBB2B4
:1036900017200F2B00D9C0E62B22B15C17200F2971
:1036A00000D9BAE63868427E52B2002AFBDBF289C2
:1036B000307B0243B068024309050A431B041343ED
:1036C000424613612A23F35C13750F239375153358
:1036D000F35C002B12D0F38C1A4A1720934200D9C6
:1036E0009BE642469384328D80231B01D3181549F3
:1036F0009BB28B4200D990E64346DA84124B1B689A
:103700005B01E022D2001340104A5168490112685F
:10371000D20E0A43D2B213434246138500207CE600
:103720000004004000080040B40300209D4F00004A
:10373000114F00000D88000000AC00009550000003
:103740002CAB0000FF0F0000246080002060800090
:10375000002C00D07FE7F27C002A0FD0F269802194
:1037600009018C4662442A4917208A4200D954E64E
:10377000326A624426498A4200D94EE6244A17201A
:10378000F169914200DD48E6316A914200DD44E68C
:1037900061E7F27C002A0FD0F269802189008C4613
:1037A00062441C4917208A4200D936E6326A6244D4
:1037B00018498A4200D930E6164A1720F169914229
:1037C00000DD2AE6316A914200DD26E643E7F27C1D
:1037D000002A0FD0F269802109028C4662440E490A
:1037E00017208A4200D918E6326A62440A498A429E
:1037F00000D912E6084A1720F169914200DD0CE673
:10380000316A914200DD08E625E7172005E6C0464B
:10381000FF0F0000FF030000FFFF000070B52E4BFC
:103820001C6823681D7EEDB2EA0705D5E27ED2074B
:1038300002D5A27ED20716D46B0708D504232268CE
:103840001376E37E9B0702D5A37E9B073CD4AB0790
:1038500008D5022322681376E37E5B0702D5A37E98
:103860005B0735D470BD01221A762268537E5BB2A5
:10387000002BFBDB61698B1C6361538B9BB20B805C
:10388000238B013B9BB22383002B11D0637F002B42
:10389000D2D02268537E5BB2002BFBDB137B02216C
:1038A0000B4313732268537E5BB2002BFBDBC3E731
:1038B000237F052BC0D10023237701332268937522
:1038C0002000A3689847B7E72000E3689847BEE761
:1038D000236920009847C5E7B40300201723002A76
:1038E00001D0180070478B00064A9B58002B03D06C
:1038F000834205D01D23F4E7890088500023F0E7B8
:103900000023EEE7BC0300201723002901D0180094
:10391000704700221F2800D8024A01238340D36049
:103920000023F4E7001800401723002901D01800F5
:10393000704700221F2800D8024A01238340936069
:103940000023F4E70018004070B50022104B1A70F5
:10395000002310491F25104E0D4C0AE00D4908E0C8
:1039600023780133DBB223700F2B10D800211F2BDB
:10397000F4D9280018400122824008691042EFD093
:103980000A619B009B59002BEAD09847E8E770BD7D
:10399000B803002000180040BC030020044A13783C
:1039A00002210B43137053785BB2002BFBDB704793
:1039B0000018004000B583B0124A936940210B43C0
:1039C000936101A900230B7005200F4B9847052038
:1039D0000E4B98470E4A137801210B43137053780E
:1039E0005BB2002BFBDB0B4B19004031002204C300
:1039F0009942FCD11022084B1A60084B984703B03B
:103A000000BDC046000400409D4F0000114F000063
:103A100000180040BC03002000E100E09D390000D8
:103A200000230360436001220272427283720233F8
:103A3000C3727047F0B583B005000C0001A90023E4
:103A40004B70CB7023790B70237A8B702078154BD9
:103A5000984700201F2D00D8134807222A409200C3
:103A6000E77AA37A002B01D008231F43EB089B00C1
:103A7000C31899690F269640B14397403A000A430C
:103A80009A61637A002B06D143690122AA409343CD
:103A9000436103B0F0BD42690123AB40134343616E
:103AA000F7E7C046955000000018004000B583B00D
:103AB00001AB80221A700A785A704A789A708A7814
:103AC000DA701900014B984703B000BD9550000013
:103AD000F0B5DE4657464E464546E0B587B08046CF
:103AE000049116001F000022002300218B463F2472
:103AF00001202100009601975C46039444460594FA
:103B000013E02024641A0500E540A84614E0009C58
:103B1000019D121BAB415C464D462C43A346039CC2
:103B200045462C430394013925D3202464420C19C3
:103B3000E7D40500A540A84604008C40A146921891
:103B40005B4114001D00059E4F463E40B446049E56
:103B500047463E40B246664657463E4303D00600BF
:103B6000264332002B00009C019D9D42DBD8CED124
:103B70009442D8D8CBE7039B5846190007B03CBC09
:103B800090469946A246AB46F0BD10B54908402381
:103B90000024814202D2180010BD1C00091A631CC7
:103BA0009BB28842F9D94023FF2CF4D8148000231B
:103BB000F1E70000F0B583B00F00160008AA1178F5
:103BC00004004C434022BC4202D9100003B0F0BDB7
:103BD000002B14D1020008000021194CA04701005D
:103BE0003A0000230020174CA04700220123121A9C
:103BF0008B41120C1B041A4332800022E5E700229D
:103C0000012BF9D10A00002300210D4CA04702002E
:103C10000B0000920193380000210A4CA0470500D8
:103C200080239B0140229842CFD8790FF800009A58
:103C3000019BA047EA00821AD2B252032A43DBE773
:103C400031720000D13A000010B582B004000E4B72
:103C50001B78002B07D0002905D10B4B5B788342E2
:103C600010D01D200CE001A90C701320074B9847C1
:103C70001320074B9847044B5C7001221A700020F8
:103C800002B010BD0020FBE7BC0000209D4F0000EB
:103C9000114F0000404B984231D00AD93F4B984217
:103CA0004DD03F4B98425AD03E4B984237D00020DF
:103CB00070473D4B98420CD03C4B9842F7D10129BC
:103CC00017D000295DD0022915D0032915D0002076
:103CD000EEE7012907D0002951D0022905D0032998
:103CE00005D00020E4E73248E2E73248E0E7324816
:103CF000DEE73248DCE73248DAE73248D8E7012924
:103D000007D000293FD0022905D0032905D0002083
:103D1000CEE72D48CCE72D48CAE72D48C8E7012952
:103D200007D0002931D0022905D0032905D0002071
:103D3000BEE72848BCE72848BAE72848B8E7012981
:103D400007D0002923D0022905D0032905D000205F
:103D5000AEE72348ACE72348AAE72348A8E70129B0
:103D600007D0002915D0022905D0032905D000204D
:103D70009EE71E489CE71E489AE71E4898E71E48A3
:103D800096E7032094E71D4892E71D4890E71D48F9
:103D90008EE71D488CE7C046001000420018004224
:103DA000001C00420014004200080042000C0042C7
:103DB00003000500030006000300070003000100E4
:103DC00003001E0003001F000300090003000A0097
:103DD00003000B0003001100030012000300130096
:103DE00003000D0003000E0003000F000300170086
:103DF000030018000300190003000400030008007A
:103E00000300100003000C000300160030B587B05B
:103E10000B4B6A4632CB32C232CB32C2009B83425A
:103E20000BD001239A0069465258824206D00133D2
:103E3000062BF7D1002007B030BD0023D8B2FAE737
:103E400050AC000070470000F0B50A4B1B78002B07
:103E50000CD1094F094E0A4D0024DE515A19146045
:103E60000433182BF9D10122024B1A708000024B47
:103E7000C150F0BDBE000020C0000020453E000043
:103E8000FC03002000B583B009236A461370013398
:103E90005370013393700133D370013313710133C5
:103EA0005371034B98476B46185603B000BDC0468C
:103EB0000D3E000010B5024B1B680020984710BD56
:103EC000C000002010B5024B5B680120984710BD70
:103ED000C000002010B5024B9B680220984710BD1F
:103EE000C000002010B5024BDB680320984710BDCE
:103EF000C000002010B5024B1B690420984710BD7C
:103F0000C000002010B5024B5B690520984710BD2A
:103F1000C0000020F0B58BB005000C001600296031
:103F20000B681C209B0701D50BB0F0BD0B68173840
:103F3000DB07F9D40800604B9847604A116A871C78
:103F40000123BB400B43136209A92427F35D0B70C7
:103F50001430C3B201931800594B98470198594B3C
:103F60009847F05D0021584B98473378012B38D0A3
:103F70002B000C3329002831002204C38B42FCD1D2
:103F80000023EB62AB620024AB862B863633EC5405
:103F90000133EC540133EC54353B6B722C712868BF
:103FA000454B984707004949494B9847BF00494B43
:103FB000FD502F6804AB80221A705C707F3A9A70B3
:103FC000DC703378002B02D1002204AB9A70B36A04
:103FD0000593F36A0693336B0793736B089300247E
:103FE0000BE023680C2213432360C1E738003A4BEF
:103FF00098470AE00134042C10D0E1B2A30002AAD1
:104000000C201218D0580028F0D0431CF2D004A97C
:104010000870000CC0B2314B9847EBE733786B71F6
:10402000337CAB71B37CEB71337D2B72002202AB1E
:10403000DA803378012B28D07368B2681343F268B2
:104040001343317C727C002A03D1254A927892076F
:1040500001D580221343B27C002A02D08022920232
:104060001143F27C002A02D0802292001143327D5B
:10407000002A02D08022920111433A6813433B6028
:104080007B680B437B6000204EE728680A4B98470B
:104090001430C0B2134B9847010002AB9A1DB069AF
:1040A000114B984703001720002B00D03CE702ABD0
:1040B00006331B783B73BFE70D3E00000004004051
:1040C0009D4F0000114F0000493C0000E1410000FD
:1040D000493E0000FC030020953C00009550000084
:1040E00000200041B94F00008B3B000010B544791F
:1040F0001523012C01D0180010BD047A0023002CD8
:10410000F9D1002A58D04B78002B44D003681B7E8D
:10411000DB0710D40A78D1090023002904D1530900
:10412000DB012E498C4663441F21114001228A4045
:104130009A610523DFE70A78D4090023002C04D113
:104140005309DB01254CA44663441F24144001227B
:10415000A2405A6103681A7ED20701D58A789A6212
:10416000C2790023002AC6D102680421137E0B42C3
:10417000FCD0117E00234907BDD5538B5B0701D5C9
:10418000042353838379012B02D0936A0023B2E77F
:10419000936A0023AFE70A78D1090023002904D1EC
:1041A0005309DB010D498C4663441F211140012254
:1041B0008A405A6100239EE70A78D109002300292A
:1041C00004D15309DB0105498C4663441F2111408A
:1041D00001228A409A6100238DE7C04600440041D5
:1041E000F8B58000704BC45826683723E75C362248
:1041F000A25C1740337EB57D1D40EB0702D5637985
:10420000012B1ED06B0711D5738B5B075AD5637AD0
:10421000012B08D01E223823E254353B637202334F
:1042200033753B074AD4B36A04237383AB0703D5C2
:104230006379012B00D197E06DB2002D00DAA9E07F
:10424000F8BD637A002B22D0637A002BDAD0216884
:10425000E26A1378DBB2501CE062A079012827D013
:104260009BB2DB05DB0D8B62A38E013B9BB2A38669
:10427000A38E9BB2002BC5D101333375637A012B1A
:10428000C0D1E379002BBDD10233B375BAE7474BF8
:104290001B88B362638E013B9BB26386638E9BB2C5
:1042A000002B01D1013333756379012BCCD0A9E701
:1042B0005078000203430232E262D2E72000A36991
:1042C0009847B0E7637A012B28D023689B6ADB0507
:1042D000DB0DDAB2A16A0A70A26A511CA162A1794F
:1042E000012934D0238E013B9BB22386238E9BB2BF
:1042F000002B00D09AE700223833E254343B337568
:10430000637A022B29D0637A002B00D08EE7BB079B
:1043100000D48BE720002369984787E723689B6ACE
:10432000638E013B9BB26386638E9BB2002B00D0F1
:104330007CE70433337500223433E254353B637237
:10434000FB0700D472E72000E36898476EE71B0A7A
:104350005370A36A0133A362C4E77B0700D465E707
:1043600020006369984761E7637A012B00D063E717
:10437000E379002B00D05FE70233337501336372BA
:1043800000223533E254FB0700D455E72000E368F0
:10439000984751E78023337533767B0600D44FE787
:1043A000636A200098474BE7FC03002014040020B8
:1043B000F0B5DE4657464E464546E0B591B005009D
:1043C0000C00160029600800BC4B984702002368C7
:1043D0000520DB0706D511B03CBC90469946A246A5
:1043E000AB46F0BD236817309B07F4D4B449086A84
:1043F000971C0123BB4003430B620FA92D27F35DDC
:104400000B701432D3B202931800AE4B9847029847
:10441000AD4B9847F05D0021AC4B9847F37A6B7138
:104420002423F35CAB712523F35CEB71F37E2B72D9
:10443000337F6B722B6898461800A04B9847143056
:1044400000220E2306A98C4663441A80328A029207
:104450008023DB019A4200D19EE00FD9C023DB010B
:10446000029A9A4200D192E080231B029A4200D025
:104470001FE1032306930023079308E080239B0199
:104480009A4200D015E1102306930F3B079333683F
:104490000593F368039373690493337E9B46262345
:1044A000F35C9A4673689946002B00D1A0E0802304
:1044B0005B05994500D184E0737E002B02D0B37E6A
:1044C000424693732A68029FD369002BFCD10E33B6
:1044D00006AA944663441B8842469381059B039A2F
:1044E0001343049A13434A4613431F435B461B027C
:1044F0001F4353465B071F432723F35C002B01D167
:1045000004331F43737E9B02327F52021343727F38
:10451000120213432422B25C520413432522B25CDC
:1045200012041343B17AF27A114319433389FF2BF2
:1045300000D181E080225204174319432C23F35CFD
:10454000002B03D1624B9B789B0701D580231F432F
:104550002A68D369002BFCD1434659602A68D36985
:10456000002BFCD143461F600EAB80221A70002244
:104570005A70DA709A70336B0A93736B0B93B36B48
:104580000C93F36B02930D9300270AAE63E00823AC
:104590000693073B07937AE733680593F368039321
:1045A00073690493337E9B462623F35C9A467368B3
:1045B0009946002B18D080235B05994501D0002037
:1045C00025E02723F35C002B00D075E7336A1F003A
:1045D000C0B2404B984701000E2206AB9C46624495
:1045E00038003D4B984712E00823069300230793B9
:1045F0002723F35C002B0ED0069B0093079B0E2213
:1046000006A98C466244B16A306A344FB847002824
:1046100000D0E0E650E7336A1F00C0B22D4B984748
:104620000100069B0093079B0E2206A88446624465
:1046300038002A4FB847EAE7F37E002B00D17DE728
:104640008023DB041F4379E72000254B984707E0D0
:104650000137042F0DD0F9B2BB0098590028F3D0D0
:10466000431CF5D00EA90870000CC0B21D4B984732
:10467000EEE70023EB602B616B61AB61EB612B62BA
:10468000AB626B620022EB85AB853033EA540133B9
:10469000EA540133EA540133EA542868074B984737
:1046A00004001149114B9847A400114BE55000201C
:1046B00091E61023069300230793E8E60D3E0000E1
:1046C000000400409D4F0000114F0000493C0000D5
:1046D00000200041B94F00008B3B0000B53B0000BB
:1046E000953C00009550000009480000493E00003C
:1046F000FC030020C2791C23002A01D11800704756
:10470000C28D92B2173B002AF8D10368DA69002AF9
:10471000FCD1198502211A7E0A42FCD00023EDE764
:1047200082791C23002A01D118007047828D92B231
:10473000173B002AF8D10268107E4007F4D5D369F0
:10474000002BFCD1538BDBB298061DD0980703D504
:10475000022353831833E7E7580703D50423538311
:104760001A33E1E7D80703D5012353831233DBE77C
:10477000D80603D5102353833233D5E79B0603D5E0
:10478000202353832133CFE7138D0B800023CBE706
:10479000F8B504000D00160007680F4B9847A38D6D
:1047A0009BB2002B03D00D4B98470520F8BDA68582
:1047B0000A4B9847656205223223E2542E3BBB75B3
:1047C000237A002B01D02023BB75637A0020002BB5
:1047D000ECD00823BB75E9E7053300004533000042
:1047E000931C9B00C31859603021012393401A0089
:1047F000435C13434354704710B50122014B984763
:1048000010BDC04691470000F8B58000624BC55806
:104810002C68E369002BFCD1237EA67D1E4030234B
:10482000EB5C3122AF5C1F40F30722D5EB8D9BB2CE
:10483000002B1CD0AA6A1378DBB2511CA9626979DB
:1048400001290ED09BB2DB05DB0D2385EB8D013BEF
:104850009BB2EB85002B0CD1013323750133A3757B
:1048600007E0517809020B430232AA62EBE7012309
:104870002375B30706D50223237500223133EA548A
:10488000FB071AD4730765D5AB8D9BB2002B5FD0A5
:10489000638BDBB21A0714D43F221340002B34D0B1
:1048A0009A0711D51A223223EA54303B63837B07DF
:1048B00050D528006B6998474CE02800EB68984772
:1048C000E0E737221340E9E75A0705D51E223223D5
:1048D000EA542E3B6383EAE7DA0705D51322322335
:1048E000EA54313B6383E2E7DA0605D542223223FC
:1048F000EA54223B6383DAE720221A42D7D02132DE
:104900003223EA54123B6383D1E7238DDB05DB0DB1
:10491000DAB2696A0A706A6A511C696269790129A6
:1049200010D0AB8D013B9BB2AB85002B12D1043371
:10493000237500222E33EA54BB070BD528002B69C0
:10494000984707E01B0A53706B6A01336B62E8E714
:1049500004232375F30604D5102323752376FB0661
:104960000ED4B30604D52023237523763B070BD43E
:10497000330704D5082323752376BB0608D4F8BD76
:104980002800EB699847ECE72800AB699847EFE708
:104990002B6A28009847F2E7FC03002010B508288E
:1049A00003D880001B4B1B589F46002030E01A4B59
:1049B00018692DE0194B1B6A9B059B0F1848D840BE
:1049C00026E0154B586923E0134B1B6800209B071A
:1049D0001ED512491022CB681A42FCD00E4B1B6820
:1049E0005B0701D40F4813E000200F4B98470A4B98
:1049F0009B681B041B0C58430AE05023074AD35CF6
:104A000000205B0704D5044BD86801E08020000239
:104A100010BDC04668AC0000D8000020000800406F
:104A200000127A00006CDC02B94F000070B50C492E
:104A30000B6A047885784078012210408001402676
:104A4000B34303432A40D20180208343134303220C
:104A5000224012020348034013430B6270BDC0465C
:104A600000080040FFFCFFFFF0B5CE46474680B58A
:104A7000194B99469B6941788C4605780679C77829
:104A80004479807801210840800004229343034345
:104A900060460840C0000432934303433800084096
:104AA00080014027BB43034330000840C0018026FB
:104AB000B3430343072005402D02084803402B431E
:104AC00021400903064803400B434A4693610CBC4E
:104AD00090469946F0BDC04600080040FFF8FFFF31
:104AE000FFEFFFFF10B5037A9B061B0C428992056E
:104AF000920D134318494B608379C279134342885E
:104B00008488224313434278D20113430B60037815
:104B1000042B11D0202B0ED1037B9B06028A13435A
:104B2000C28912040D490A4013430B4A936011686D
:104B30000B4B0B43136010BD037B9B06028A134390
:104B4000C289120405490A401343034A936013685B
:104B500004210B431360EEE7D80000200000FF03A0
:104B600024040000082803D88000254B1B589F46CA
:104B7000172044E0234A136A02210B4313620020EA
:104B80003DE0204A936902210B439361002036E007
:104B90001C4A138A02210B43138200202FE0194A7A
:104BA000938A02210B439382002028E016490B6868
:104BB000022213430B60134B9A8419000E32CB6808
:104BC0001A42FCD0104A91680E4BD96252689A6220
:104BD00000229A8419001032CB681A42FCD00A4B8A
:104BE0001B689BB2074A9384002008E005494422D1
:104BF0008B5C022003438B54002000E000207047B0
:104C00008CAC000000080040D8000020F0B58DB04A
:104C1000C222D200444B9A60444A53681E218B43FF
:104C20001A390B435360022201AB1A700024404D25
:104C3000E0B201A9A8470134252CF9D13D4C2368E5
:104C4000DB0439498A695B0E1B043B48024013436D
:104C50008B610AA80123437083700025C57003711E
:104C6000457102330370354B98470420344B984705
:104C700005AB00225D809D809A71DA713F215981D8
:104C80003B3919705A7023689B0E3F2B4AD005A8F8
:104C900003722C4B0382072303733833C3812A4BDF
:104CA000984704A800254570012686700570274B9B
:104CB00098470620224FB847254B984701AC0296EB
:104CC0006570257265720423237021000120214B39
:104CD00098470120204B9847267021000020144B54
:104CE000984700201D4B98470720B8470E49D0220F
:104CF000CB681340D02BFBD1194A00231372537297
:104D00009372D37201A901224A604B700B724B72ED
:104D100007330B7000200F4B984700200E4B98472D
:104D20000DB0F0BD203BB2E700080040004000415C
:104D30009D4F000024608000FFFF80FF694A000053
:104D4000654B0000B9050000E54A00002D4A00004F
:104D5000654D0000894D0000414E0000114F0000DC
:104D600000040040064A936908210B439361012225
:104D7000044B1A7019000B781342FCD17047C046DF
:104D800000040040000C004070B5060004000D78DF
:104D90002D0205434B78002B02D08023DB021D43FC
:104DA0004B7A002B02D080231B031D434868012847
:104DB00010D9431E184234D1022830D902230022D0
:104DC00001325B009842FBD8120232431400802368
:104DD0005B031D430B7A002B02D080239B031D43F2
:104DE000134A53785BB2002BFBDB124B9847124BF4
:104DF0001E700F4A53785BB2002BFBDB0C4B9C60A0
:104E00001A0053785BB2002BFBDB094A5368802100
:104E100049020B401D435560084B984770BD002266
:104E2000D2E70402344380239B021D43D2E7C046ED
:104E3000000C004005330000080C00404533000022
:104E400010B504000B4A53785BB2002BFBDB0A4B16
:104E500098470A4B1C70074A53785BB2002BFBDB68
:104E6000044A516880235B020B435360044B98470C
:104E700010BDC046000C004005330000040C00408B
:104E80004533000070B504001A4A53785BB2002B1A
:104E9000FBDB194B9847194B1C70164A53785BB2D1
:104EA000002BFBDB134E7068C004C00E144B9847F8
:104EB0000500124B1C707668F602F60F114B1C7041
:104EC0000C4A53785BB2002BFBDB0A4B9C68240234
:104ED000240C0D4B9847002E07D1012C07D9210037
:104EE00028000A4B9847050001E00134E5402800FE
:104EF00070BDC046000C004005330000040C0040AB
:104F00009D490000080C004045330000456F00003B
:104F100010B50400064B9847064B1C70064A538890
:104F20008021C9010B435380044B984710BDC046F4
:104F300005330000020C0040000C00404533000027
:104F400010B504000F4B98470F4B1C700F4A538845
:104F50001B05180F53880E490B40538053880D4989
:104F60000B40538011008022D2014B881342FCD1A8
:104F700006494A8803020648024013434B80064B09
:104F8000984710BD05330000020C0040000C0040A3
:104F9000FFF0FFFFFFBFFFFF4533000010B50C78A7
:104FA00024020443024B9847A4B2024B5C8010BD1C
:104FB000414F0000000C004010B50400064B98471C
:104FC000064B1C70064B5C882405240F054B984744
:104FD0002000054B984710BD05330000020C00402F
:104FE000000C004045330000854E000030B5D378FA
:104FF000002B35D11378802B29D01B068024640226
:10500000234354780225AC4306D19478002C20D158
:105010008024A402234341605478013C012C1CD914
:105020000D042D0CA024E4052C431C4384620D0CBC
:10503000D02424062C431C438462D478002C22D133
:105040005B031CD59378012B1ED0416117E0002330
:10505000D7E7C024E4022343DDE70D4C2340DFE71C
:1050600041600C04240CA023DB05234383620C0C59
:10507000D0231B0623438362D378002B03D15378BC
:10508000013B012B02D930BD8161F8E78160FAE76D
:10509000FFFFFBFF10B50A00C1090023002904D15E
:1050A0004309DB0105498C4663441F24204001214C
:1050B00081401800024B984710BDC0460044004193
:1050C000ED4F00007047000010B5054B9847054BA9
:1050D0009847054B9847054B9847054B984710BD97
:1050E0000D4C000075330000C5500000B5390000BC
:1050F000C5500000094B98420CD0094B984207D08C
:10510000084A0023904201D018007047023302E0A1
:10511000012300E00023DBB2F6E7C0460020004296
:10512000002400420028004210B5040008004F4B44
:1051300098470023236080004D4A82586260A37222
:10514000E372237363722372E36123626362A36277
:1051500023756375A375E37523766376237463748F
:10516000A374E3742C22A3540132A3540132A35438
:105170000132A3540132A3540132A3540132A35487
:105180000132A3540132A3540132A3540132A35477
:105190000132A3540132A3540132A3540132A35467
:1051A0000132A3540132A3540132A3540132A35457
:1051B0000132A3540132A3540132A3540132A35447
:1051C0000132A3540132A3540132A3540132A35437
:1051D0000132A3540132A3540132A3540132A35427
:1051E0000132A3540132A3540132A3540132A35417
:1051F0000132A3540132A3540132A3540132A35407
:105200000132A3540132A3540132A3540132A354F6
:105210000132A3544132A354A365A3670132A354BE
:10522000E365E3670132A35423661A3AA3501B32A5
:10523000A3546366173AA3501832A354A366143AD2
:10524000A3501532A354E366113AA3501232A3546B
:1052500023670E3AA3500F32A35463670B3AA3504F
:1052600001210C32A1540132A35410BDF5500000AD
:10527000C4AC0000F0B5DE4657464E464546E0B5A4
:1052800091B001900C0015000800C34B9847030033
:105290000100C248026A9E00C14FF7593A430262B8
:1052A00022681C20920706D511B03CBC9046994656
:1052B000A246AB46F0BD226801271740F4D1B94899
:1052C000325817202E68B242EED36E68B242EBD34A
:1052D000E869824200D2B9E1286A824200D2B7E18D
:1052E000686A824200D2B5E1A86A824200D2B3E184
:1052F00098229446AC4462460892002003E00130B4
:105300000132082808D01678002EF8D0A64E765C18
:105310008642F4DC1720C7E7002202928020400476
:10532000844602E00132042A0ED0A818007C01282D
:10533000F8D19E48405C904200DA8FE16046904090
:10534000029E06430296EDE79D32AA5C002A04D035
:10535000802212010299114302912A7A511E8A4138
:10536000920006926A7A012A22D0904AD25C1100F9
:1053700005923522AA5C8A4200D379E12C21695C2E
:105380000F2900D974E1287B0A90E87A0B902D2030
:105390008246AA44002004970EAE0796C026360126
:1053A000B1468446A046280055460993824635E01A
:1053B000069911430691D8E792024F463A400A43B4
:1053C00019798B4603215F4639400A4316435A79BF
:1053D000520160210A40324399790902C026B60081
:1053E0000E401643DA791203E021C9010A40164340
:1053F0003443039A14432043624607995050042AC9
:105400002AD09A7C0599914200D831E1597A0A351F
:1054100004239B46DC440F2900D929E10906F02327
:105420001B0519402B002E783604FF20000406408F
:1054300068788024002800D1049C98780827039776
:10544000002801D104980390D878834610205F4645
:10545000002FB1D10498AFE744465546099B524A04
:10546000D25C9146514650315046413000270022CF
:105470000126B2460226FF36B34680267602B046A3
:10548000A4461C004B460FE00678002E07D093423E
:1054900000D8E7E0022E14D056469640374301323A
:1054A00001310230082A10D00E78002EECD0934241
:1054B00000D8D5E04646964037430678002EE9D11D
:1054C000EDE75E4696403743E9E799462300644698
:1054D0006A7E120130211140287E072202401143CA
:1054E0000022802040020E0002E00132042A0BD08C
:1054F000A918097D0029F8D00599914200DCB3E094
:10550000010091400E43F0E7B246019802000432D8
:105510003430002102C28242FCD100220198426351
:1055200082639900224A88500460A022A95C643AF0
:1055300081540DA9AA7A0A701E4AD65C30001E4B0F
:10554000984730001D4B98474B46002B3CDD2E0002
:10555000583698339846A84401239946AB464546A9
:10556000A046089C03E001340436AC422AD02378DC
:10557000002BF8D00CAB4A469A7000230CAAD370CB
:1055800013002022B21812781A704A465A703078E6
:1055900019000B4B9847E6E7F55000000004004067
:1055A000B0AC0000C4AC0000D0AC0000BCAC00004B
:1055B00018040020C0AC00009D4F0000114F0000F7
:1055C0009550000044465D460A9B1B030B9A12024D
:1055D0001343029A134323600422A3681A42FCD1A6
:1055E000FF2323710422A3681A42FCD16B461B7E61
:1055F00063710E9BE3600F9B2361A7611D4AA36843
:105600001342FCD15346E3631022A3681A42FCD133
:105610002B686363184AA3681342FCD16B68236448
:105620000598002822DD1C350021144E32008A40E6
:10563000A3681A42FCD104CD0B0010339B00E31881
:105640005A6001318842F1DC00202DE617202BE65C
:10565000172029E6172027E6172025E6172023E63E
:10566000172021E617201FE617201DE600201BE665
:10567000172019E640000200800004000001080025
:10568000920083185960034BD358426B1343436312
:1056900000207047D4AC000070B504000D00006815
:1056A000094B9847094B1B5C1F221A40012393406A
:1056B000074A1360AD00074BEA58A36B1343A3637B
:1056C00023689A6270BDC046F550000004AD00002A
:1056D00000E100E0D4AC0000F0B5C64600B58000A3
:1056E0000E4BC7583B68DE6ABB6B7A6B13401E409B
:1056F00000240B4B984602E00434302C0AD0434679
:10570000E5583542F8D03B195B68380098473B684C
:10571000DD62F1E704BC9046F0BDC04618040020ED
:10572000D4AC000010B50020014B984710BDC04616
:10573000D956000010B50120014B984710BDC04656
:10574000D956000010B50220014B984710BDC04645
:10575000D9560000FEE70000F8B52A4A2A4B9A42C3
:1057600011D01A00294B9A420DD2294A03339B1AB1
:105770009B0801339B000022234822498C58845007
:1057800004329A42FAD1234A234B9A420AD2D34393
:1057900021495B1803218B4304339B18002102C26B
:1057A0009342FCD11D4AFF211D4B8B439360FD3971
:1057B00090235B001B4AD1501B4AD3780325AB438F
:1057C00002242343D370D3780C27BB4308263343EA
:1057D000D370164B987B302290432022104398734D
:1057E000997BB943314399739A7BAA4322439A73B5
:1057F0000F4A536880210B4353600E4B98470E4B62
:105800009847FEE780B000000000002080000020E4
:105810000400002080000020B004002000ED00E023
:1058200000000000007000410050004100480041AD
:1058300000400041B1870000ED5D0000F0B5C646B4
:1058400000B50C00904600280FD1002A11DD8F18FA
:10585000094E0A4D306821002B6898470134BC423C
:10586000F8D1404604BC9046F0BD01235B42984607
:10587000F7E78046F5E7C0462C040020240400200A
:10588000F0B5C64600B50E0015000138022810D844
:10589000002A11D000240C4B98460C4F4346186840
:1058A000315D3B689847002808DB0134A542F5D1FB
:1058B00006E00124644203E0140001E00124644294
:1058C000200004BC9046F0BD2C04002028040020D9
:1058D0000300064A1268002A04D0044A1068C3185C
:1058E000136070470249014A1160F6E7F00000209A
:1058F000B024002001204042704780239B014B6070
:10590000002070470120704700207047026001614D
:10591000002242608360009BC360704710B50400A2
:105920004268002A00D110BD0169C068A368984789
:1059300000236360F7E7000070B504000D00036802
:1059400042689B1A002B05DD22696368591C61605F
:10595000D55470BD014B9847F6E7C0461D5900006D
:1059600070B506000C000912024DA84761B2300064
:10597000A84770BD39590000F8B506000C00002A90
:1059800008D08D18044F002161563000B84701340B
:10599000A542F8D1F8BDC04639590000024A136843
:1059A000013313607047C046F40000206423438035
:1059B0000023037043707047F0B5C64600B5ACB025
:1059C0000D006E461D4B6A4692CB92C26B884365B2
:1059D000143004002B789B00995917001000184BC5
:1059E00098470020174B9847174B1B7ADBB2D840DB
:1059F00080466988FA200002144B9847010040460F
:105A0000134B984778600523FB722B789B009959BC
:105A10003A0020000F4B98476A780832D2B20E49FC
:105A200020000E4B984769780831C9B220000C4B12
:105A300098472CB004BC9046F0BDC04608AD0000AD
:105A400029510000854E00000004004059700000FC
:105A5000456F0000755200009D59000081560000FE
:105A6000995600004269022193681942FCD11368DB
:105A700002210B431360704770B504000578E807F6
:105A800002D50120404270BD61602900022081439F
:105A90002170A260616D1800044B9847E060237884
:105AA0000122134323700020EDE7C046456F00003C
:105AB00070B58B005D18AD00295C02263143295476
:105AC0004419416D1000034B9847034B1B68C018E5
:105AD000206170BD456F0000F40000208B00591854
